:100000000C942A000C94CE010C941F020C9447000F
:100010000C9447000C9447000C9447000C94470044
:100020000C9447000C9447000C9447000C94470034
:100030000C9447000C9447000C9447000C94470024
:100040000C9447000C9447000C9447000C94470014
:100050000C94470011241FBECFE5D8E0DEBFCDBF12
:1000600010E0A0E6B0E0E4E7F9E002C005900D92F0
:10007000AE37B107D9F720E0AEE7B0E001C01D927E
:10008000A238B207E1F70E94E7030C94B8040C947D
:100090000000CF93C0E006C041E06C2F83E40E94D3
:1000A0007F00CF5FC730C0F3C0E006C040E06C2FD8
:1000B00083E40E94F700CF5FC730C0F3CF9108956B
:1000C000CF93DF938A3008F080E0E82FF0E0EF591B
:1000D000FF4FD081C0E00EC04D2F50E00C2E02C06B
:1000E000559547950A94E2F741706C2F83E40E947E
:1000F000F700CF5FC73080F3DF91CF91089582344E
:1001000029F118F4813439F008958334D1F184341D
:1001100009F452C00895413059F42AB381E090E0C7
:1001200002C0880F991F6A95E2F7822B8ABB089557
:1001300041115CC02AB381E090E002C0880F991F92
:100140006A95E2F7809582238ABB0895413059F47D
:1001500027B381E090E002C0880F991F6A95E2F70B
:10016000822B87BB0895411141C027B381E090E005
:1001700002C0880F991F6A95E2F78095822387BB9A
:100180000895413059F424B381E090E002C0880F13
:10019000991F6A95E2F7822B84BB0895411126C00E
:1001A00024B381E090E002C0880F991F6A95E2F7BE
:1001B0008095822384BB0895413059F421B381E0B6
:1001C00090E002C0880F991F6A95E2F7822B81BBED
:1001D000089541110BC021B381E090E002C0880F67
:1001E000991F6A95E2F78095822381BB0895823436
:1001F00029F118F4813439F008958334D1F184342D
:1002000009F452C00895413059F42BB381E090E0D5
:1002100002C0880F991F6A95E2F7822B8BBB089565
:1002200041115CC02BB381E090E002C0880F991FA0
:100230006A95E2F7809582238BBB0895413059F48B
:1002400028B381E090E002C0880F991F6A95E2F719
:10025000822B88BB0895411141C028B381E090E012
:1002600002C0880F991F6A95E2F78095822388BBA8
:100270000895413059F425B381E090E002C0880F21
:10028000991F6A95E2F7822B85BB0895411126C01C
:1002900025B381E090E002C0880F991F6A95E2F7CC
:1002A0008095822385BB0895413059F422B381E0C3
:1002B00090E002C0880F991F6A95E2F7822B82BBFB
:1002C000089541110BC022B381E090E002C0880F75
:1002D000991F6A95E2F78095822382BB0895823444
:1002E000A1F018F4813431F008958334C9F08434D6
:1002F00011F108952BB381E090E002C0880F991F9F
:100300006A95E2F782278BBB089528B381E090E0DD
:1003100002C0880F991F6A95E2F7822788BB08956B
:1003200025B381E090E002C0880F991F6A95E2F73B
:10033000822785BB089522B381E090E002C0880F38
:10034000991F6A95E2F7822782BB089595B79C7F33
:1003500095BF813031F0A0F0823039F0833049F020
:100360000CC085B7816085BF0BC085B7826085BF33
:1003700007C085B7836085BF03C085B7826085BF2E
:100380008AB780648ABF08958BB780648BBF7894E6
:10039000089590937F0080937E0008951F920F929E
:1003A0000FB60F9211242F933F934F935F936F9348
:1003B0007F938F939F93AF93BF93EF93FF93E091BE
:1003C0007E00F0917F00309709F00995FF91EF9141
:1003D000BF91AF919F918F917F916F915F914F915D
:1003E0003F912F910F900FBE0F901F90189595B7CA
:1003F000937F95BF813031F0A0F0823039F08330A7
:1004000049F00CC085B7846085BF0BC085B7886094
:1004100085BF07C085B78C6085BF03C085B788607E
:1004200085BF8AB780688ABF08958BB780688BBF05
:1004300078940895909381008093800008951F928E
:100440000F920FB60F9211242F933F934F935F9308
:100450006F937F938F939F93AF93BF93EF93FF938C
:10046000E0918000F0918100309709F00995FF91AB
:10047000EF91BF91AF919F918F917F916F915F911C
:100480004F913F912F910F900FBE0F901F90189595
:1004900041E062E081E40E94F700000040E062E099
:1004A00081E40E94F70083EF91E00197F1F700C02B
:1004B00000000895CF93C82F482F417060E082E478
:1004C0000E94F700C1FB442740F961E082E40E94EA
:1004D000F700C2FB442740F962E082E40E94F70083
:1004E000C3FB442740F963E082E40E94F700C4FBA9
:1004F000442740F964E082E40E94F700C5FB4427EA
:1005000040F965E082E40E94F700C6FB442740F909
:1005100066E082E40E94F7004C2F441F4427441FEA
:1005200067E082E40E94F7000E944802CF9108959C
:10053000CF93C82F40E060E081E40E94F70040E0E4
:1005400061E081E40E94F7008C2F0E945A02CF9153
:100550000895CF93C82F41E060E081E40E94F70046
:1005600040E061E081E40E94F7008C2F0E945A0273
:10057000CF91089541E060E081E40E947F0041E076
:1005800061E081E40E947F0041E062E081E40E943A
:100590007F0041E060E082E40E947F0041E061E092
:1005A00082E40E947F0041E062E082E40E947F00DA
:1005B00041E063E082E40E947F0041E064E082E485
:1005C0000E947F0041E065E082E40E947F0041E0FC
:1005D00066E082E40E947F0041E067E082E40E94DE
:1005E0007F0087E893E10197F1F700C0000088E3FE
:1005F0000E94980289EF90E00197F1F700C0000097
:100600008CE00E94980289EF90E00197F1F700C01A
:10061000000081E00E94980283EF91E00197F1F7DA
:1006200000C0000086E00E94980289EF90E00197E8
:10063000F1F700C00000089581E00E94980283EF66
:1006400091E00197F1F700C000000895CF93DF9388
:10065000EC0103C021960E94A90288818111FACF82
:10066000DF91CF9108952F923F924F925F926F92B8
:100670007F928F929F92AF92BF92CF92DF92EF9232
:10068000FF920F931F93CF93DF93CDB7DEB767979A
:100690000FB6F894DEBF0FBECDBF2D8B3E8B742EF0
:1006A000652E562E472E382E292EA0E00E94AC042F
:1006B000C9F580E30E94A90250C081E0880D8F8BAC
:1006C000912C0F2EFAE0AF2EF02DB12CC12CD12C95
:1006D000E12CF12C00E010E02D893E89472D562DAC
:1006E000652D742D832D922D0E944D04E1E0F0E0E4
:1006F000EC0FFD1FE80DF91D205D20832D893E893B
:10070000472D562D652D742D832D922D0E944F045B
:100710002D8B3E8B742E652E562E472E382E292E6D
:100720008F8801C0812C2D893E89472D562D652D3E
:10073000742D832D922DA0E00E94AC0409F0BDCF52
:100740000AC08A94E1E0F0E0EC0FFD1FE80DF11D16
:1007500080810E94A9028110F4CF67960FB6F894A9
:10076000DEBF0FBECDBFDF91CF911F910F91FF90E4
:10077000EF90DF90CF90BF90AF909F908F907F9041
:100780006F905F904F903F902F90089541E00E94AE
:100790007F0008950E946F01089564E081E40E9443
:1007A000CA03089581E080936000809160000E94F8
:1007B00060000E941C032091600030E040E050E0A7
:1007C00060E070E080E090E00E943303089564E010
:1007D00081E40E94C6030E9449000E94BA028BE68F
:1007E00090E00E9426032FEF89E698E12150804097
:1007F0009040E1F700C000000E941C0382E00E94CC
:10080000A6018DEC93E00E94C9010E94C40182E020
:100810000E94F70182ED93E00E941A020E941502E5
:10082000809160000E9460002091600030E040E014
:1008300050E060E070E080E090E00E9433032FEF32
:1008400086E191E1215080409040E1F700C0000036
:10085000F89480916000893020F081E080936000FE
:1008600005C0809160008F5F8093600078948091D4
:1008700060000E9460000E941C0385E790E00E94D7
:1008800026032091600030E040E050E060E070E03E
:1008900080E090E00E943303D2CF689401C0E894D6
:1008A0008F929F92CF93DF930E945B04DF91CF9151
:1008B0009F908F90089588249924F401E401B0E476
:1008C0009F93AA279A158B049C04ED05FE05CF057E
:1008D000D007A10798F4AD2FDC2FCF2FFE2FE92DE5
:1008E000982C892E982F872F762F652F542F432FE2
:1008F000322F2227B85031F7BF9127C01B2EBF914E
:10090000BB27220F331F441F551F661F771F881FE9
:10091000991F881C991CEE1FFF1FCC1FDD1FAA1FEB
:10092000BB1F8A149B04EC05FD05CE05DF05A0075F
:10093000B10748F08A189B08EC09FD09CE09DF09C8
:10094000A00BB10B21601A94E1F62EF49401AF01D3
:10095000BE01CD01000C08950024A7FD00942A17C4
:100960003005400550056005700580059005089527
:04097000F894FFCF29
:10097400013F065B4F666D7D077F6F4558544920E4
:0E09840044656D6F00436F756E743A2000007D
:00000001FF
