:100000000C942A000C943F000C943F000C943F0089
:100010000C943F000C943F000C943F000C943F0064
:100020000C943F000C943F000C943F000C943F0054
:100030000C943F000C943F000C943F000C943F0044
:100040000C943F000C943F000C943F000C943F0034
:100050000C943F0011241FBECFE5D8E0DEBFCDBF1A
:1000600010E0A0E6B0E0E6EAFAE002C005900D92EA
:10007000AE38B107D9F70E948A030C9451050C944D
:100080000000823429F118F4813439F00895833462
:10009000D1F1843409F452C00895413059F42AB39F
:1000A00081E090E002C0880F991F6A95E2F7822BE9
:1000B0008ABB089541115CC02AB381E090E002C080
:1000C000880F991F6A95E2F7809582238ABB08956D
:1000D000413059F427B381E090E002C0880F991FA6
:1000E0006A95E2F7822B87BB0895411141C027B37F
:1000F00081E090E002C0880F991F6A95E2F7809531
:10010000822387BB0895413059F424B381E090E005
:1001100002C0880F991F6A95E2F7822B84BB08956D
:10012000411126C024B381E090E002C0880F991FDE
:100130006A95E2F78095822384BB0895413059F493
:1001400021B381E090E002C0880F991F6A95E2F721
:10015000822B81BB089541110BC021B381E090E057
:1001600002C0880F991F6A95E2F78095822381BBB0
:100170000895823429F118F4813439F008958334D4
:10018000D1F1843409F452C00895413059F42BB3AD
:1001900081E090E002C0880F991F6A95E2F7822BF8
:1001A0008BBB089541115CC02BB381E090E002C08D
:1001B000880F991F6A95E2F7809582238BBB08957B
:1001C000413059F428B381E090E002C0880F991FB4
:1001D0006A95E2F7822B88BB0895411141C028B38C
:1001E00081E090E002C0880F991F6A95E2F7809540
:1001F000822388BB0895413059F425B381E090E013
:1002000002C0880F991F6A95E2F7822B85BB08957B
:10021000411126C025B381E090E002C0880F991FEC
:100220006A95E2F78095822385BB0895413059F4A1
:1002300022B381E090E002C0880F991F6A95E2F72F
:10024000822B82BB089541110BC022B381E090E064
:1002500002C0880F991F6A95E2F78095822382BBBE
:1002600008958234A1F018F4813431F00895833474
:10027000C9F0843411F1089589B390E002C09595D6
:1002800087956A95E2F78170FA018083089586B3B5
:1002900090E002C0959587956A95E2F78170FA0122
:1002A0008083089583B390E002C0959587956A9501
:1002B000E2F78170FA018083089580B390E002C074
:1002C000959587956A95E2F78170FA018083089584
:1002D00041E060E083E40E94410041E060E083E4AB
:1002E0000E94B90041E061E083E40E94410041E0E6
:1002F00061E083E40E94B90041E062E083E40E948F
:10030000410041E062E083E40E94B90041E063E023
:1003100083E40E94410041E063E083E40E94B9006D
:1003200040E064E083E40E94410041E064E083E453
:100330000E94B90040E065E083E40E94410041E092
:1003400065E083E40E94B90040E066E083E40E9437
:10035000410041E066E083E40E94B90040E067E0CC
:1003600083E40E94410041E067E083E40E94B90019
:100370000895FF920F931F93CF93DF931F92CDB7F2
:10038000DEB7F12C3DC040E06F2D83E40E94B90040
:1003900010E02EC004E0010FAE014F5F5F4F602FF1
:1003A00083E40E9431018981811121C087E893E1B2
:1003B0000197F1F700C00000AE014F5F5F4F602F63
:1003C00083E40E94310189818823B1F341E06F2DDC
:1003D00083E40E94B900EF2DF0E0EE0FFF1FEE0F57
:1003E000FF1FE05AFF4FE10FF11D80810EC01F5F1C
:1003F000143080F241E06F2D83E40E94B900F39441
:1004000093E09F1508F0BFCF8FEF0F90DF91CF9152
:100410001F910F91FF90089541E062E081E40E94F6
:10042000B900000040E062E081E40E94B90083EF7F
:1004300091E00197F1F700C000000895CF93C82F15
:10044000482F417060E082E40E94B900C1FB44275C
:1004500040F961E082E40E94B900C2FB442740F900
:1004600062E082E40E94B900C3FB442740F963E0E4
:1004700082E40E94B900C4FB442740F964E082E4AE
:100480000E94B900C5FB442740F965E082E40E9460
:10049000B900C6FB442740F966E082E40E94B90037
:1004A0004C2F441F4427441F67E082E40E94B90098
:1004B0000E940C02CF910895CF93C82F40E060E0D6
:1004C00081E40E94B90040E061E081E40E94B9004B
:1004D0008C2F0E941E02CF910895CF93C82F41E028
:1004E00060E081E40E94B90040E061E081E40E94A4
:1004F000B9008C2F0E941E02CF91089541E060E068
:1005000081E40E94410041E061E081E40E944100F9
:1005100041E062E081E40E94410041E060E082E469
:100520000E94410041E061E082E40E94410041E01C
:1005300062E082E40E94410041E063E082E40E94C4
:10054000410041E064E082E40E94410041E065E056
:1005500082E40E94410041E066E082E40E944100A2
:1005600041E067E082E40E94410087E893E101975F
:10057000F1F700C0000088E30E945C0289EF90E080
:100580000197F1F700C000008CE00E945C0289EF47
:1005900090E00197F1F700C0000081E00E945C024A
:1005A00083EF91E00197F1F700C0000086E00E9420
:1005B0005C0289EF90E00197F1F700C00000089518
:1005C00081E00E945C0283EF91E00197F1F700C0A7
:1005D00000000895CF93DF93EC0103C021960E94A1
:1005E0006D0288818111FACFDF91CF9108952F920A
:1005F0003F924F925F926F927F928F929F92AF92B3
:10060000BF92CF92DF92EF92FF920F931F93CF93FF
:10061000DF93CDB7DEB767970FB6F894DEBF0FBE96
:10062000CDBF2D8B3E8B742E652E562E472E382E29
:10063000292EA0E00E941405C9F580E30E946D02F6
:1006400050C081E0880D8F8B912C0F2EFAE0AF2ED9
:10065000F02DB12CC12CD12CE12CF12C00E010E0BC
:100660002D893E89472D562D652D742D832D922D74
:100670000E94B504E1E0F0E0EC0FFD1FE80DF91D6C
:10068000205D20832D893E89472D562D652D742DA3
:10069000832D922D0E94B7042D8B3E8B742E652ED8
:1006A000562E472E382E292E8F8801C0812C2D8959
:1006B0003E89472D562D652D742D832D922DA0E05A
:1006C0000E94140509F0BDCF0AC08A94E1E0F0E071
:1006D000EC0FFD1FE80DF11D80810E946D0281105D
:1006E000F4CF67960FB6F894DEBF0FBECDBFDF9193
:1006F000CF911F910F91FF90EF90DF90CF90BF901F
:10070000AF909F908F907F906F905F904F903F90B1
:100710002F9008950E947E020E94680180E790E079
:100720000E94EA022FE38DE093E021508040904048
:10073000E1F700C000000E94E002D0E0C0E0812CA0
:10074000912C5401412C512C3201C12CD12C760119
:100750000E94B901182F8F3FD9F380ED810F8A30A5
:1007600008F042C0812F0E946D02D1111EC0CC0C36
:10077000DD1CEE1CFF1CD701C601880F991FAA1FA4
:10078000BB1F880F991FAA1FBB1FC80ED91EEA1EC8
:10079000FB1E812F90E0C097092E000CAA0BBB0B0B
:1007A000C80ED91EEA1EFB1ED3CF440C551C661C76
:1007B000771CB301A201440F551F661F771F440F1A
:1007C000551F661F771F440E551E661E771E412F4C
:1007D00050E0CA01C097092E000CAA0BBB0B480EB3
:1007E000591E6A1E7B1EB4CF1B3231F01D3221F020
:1007F0001A3211F01F3241F4C111AACF812F0E9489
:100800006D02C12FD1E0A4CF1D3309F063C08DE389
:100810000E946D02CB3249F018F4CA32A1F042C0F6
:10082000CD3251F0CF32C1F03DC046015701840CAA
:10083000951CA61CB71C36C04601570184189508A4
:10084000A608B7082FC0A7019601C301B2010E94F4
:100850007B044B015C0126C0411451046104710406
:1008600049F0C701B601A30192010E948B0449011E
:100870005A0118C00E94E00280E890E00E94EA025B
:100880002FE78AE196E0215080409040E1F700C0D8
:1008900000000E94E0025301420173016201D0E0B6
:1008A000C0E056CF282D392D4A2D5B2D75016401EE
:1008B000FF0CCC08DC2C76016C2D7C2D8C2D9C2D16
:1008C0000E94F70275016401D0E0C0E0412C512C78
:1008D00032013ECF133409F03BCF0E94E002D0E05A
:1008E000C0E0812C912C5401412C512C3201C12C9F
:1008F000D12C76012DCFDB018F939F930E94AA0408
:10090000BF91AF91A29F800D911DA39F900DB29FAB
:10091000900D11240895052E97FB1EF400940E945B
:10092000A20457FD07D00E94200507FC03D04EF417
:100930000C94A20450954095309521953F4F4F4F10
:100940005F4F089590958095709561957F4F8F4F7B
:100950009F4F08950E944205A59F900DB49F900D52
:10096000A49F800D911D11240895689401C0E894FE
:100970008F929F92CF93DF930E94C304DF91CF9118
:100980009F908F90089588249924F401E401B0E4A5
:100990009F93AA279A158B049C04ED05FE05CF05AD
:1009A000D007A10798F4AD2FDC2FCF2FFE2FE92D14
:1009B000982C892E982F872F762F652F542F432F11
:1009C000322F2227B85031F7BF9127C01B2EBF917D
:1009D000BB27220F331F441F551F661F771F881F19
:1009E000991F881C991CEE1FFF1FCC1FDD1FAA1F1B
:1009F000BB1F8A149B04EC05FD05CE05DF05A0078F
:100A0000B10748F08A189B08EC09FD09CE09DF09F7
:100A1000A00BB10B21601A94E1F62EF49401AF0102
:100A2000BE01CD01000C08950024A7FD00942A17F3
:100A30003005400550056005700580059005089556
:100A4000A1E21A2EAA1BBB1BFD010DC0AA1FBB1FD2
:100A5000EE1FFF1FA217B307E407F50720F0A21B44
:100A6000B30BE40BF50B661F771F881F991F1A94B1
:100A700069F760957095809590959B01AC01BD01DB
:100A8000CF010895A29FB001B39FC001A39F700D35
:100A9000811D1124911DB29F700D811D1124911D86
:060AA0000895F894FFCF59
:100AA6003738392F3435362A3132332D43303D2B02
:100AB60043616C63756C61746F72205E5F5F5E008C
:0E0AC6004572726F723A20446976203000004B
:00000001FF
