:100000000C942A000C943F000C943F000C943F0089
:100010000C943F000C943F000C943F000C943F0064
:100020000C943F000C943F000C943F000C943F0054
:100030000C943F000C943F000C943F000C943F0044
:100040000C943F000C943F000C943F000C943F0034
:100050000C943F0011241FBECFE5D8E0DEBFCDBF1A
:1000600010E0A0E6B0E0ECE3F1E002C005900D92F4
:10007000AA36B107D9F70E9466000C949C000C9434
:1000800000006AE00E9490002CE030E061E0E82F80
:10009000F0E0E05AFF4F508142E0E92FF0E0E05AF3
:1000A000FF4F808165BB58BBEFE3FFE13197F1F76C
:1000B00000C0000045BB88BBEFE3FFE13197F1F7DB
:1000C00000C000002150310969F7089581B38760AD
:1000D00081BB8FEF87BB84B3836084BB909ACFE0F2
:1000E0008C2F0E944100C150D9F79098919A85E0D9
:1000F0000E94410084E00E94410083E00E94410090
:1001000082E00E94410081E00E9441009198929A11
:10011000CAE08C2F0E944100C150D9F79298DECFDF
:10012000991B79E004C0991F961708F0961B881F49
:0C0130007A95C9F780950895F894FFCFE8
:0A013C003F065B4F666D7D077F6F85
:00000001FF
